{
  "_format": "hh-sol-artifact-1",
  "contractName": "TekoNFT",
  "sourceName": "contracts/TekoNFT.sol",
  "abi": [
    {
      "inputs": [
        {
          "internalType": "address",
          "name": "_protocolAddress",
          "type": "address"
        },
        {
          "internalType": "address",
          "name": "_treasuryAddress",
          "type": "address"
        },
        {
          "internalType": "address",
          "name": "_lodgeAddress",
          "type": "address"
        },
        {
          "internalType": "uint256",
          "name": "_updateInterval",
          "type": "uint256"
        }
      ],
      "stateMutability": "nonpayable",
      "type": "constructor"
    },
    {
      "anonymous": false,
      "inputs": [
        {
          "indexed": true,
          "internalType": "address",
          "name": "account",
          "type": "address"
        },
        {
          "indexed": true,
          "internalType": "address",
          "name": "operator",
          "type": "address"
        },
        {
          "indexed": false,
          "internalType": "bool",
          "name": "approved",
          "type": "bool"
        }
      ],
      "name": "ApprovalForAll",
      "type": "event"
    },
    {
      "anonymous": false,
      "inputs": [
        {
          "indexed": true,
          "internalType": "address",
          "name": "previousOwner",
          "type": "address"
        },
        {
          "indexed": true,
          "internalType": "address",
          "name": "newOwner",
          "type": "address"
        }
      ],
      "name": "OwnershipTransferred",
      "type": "event"
    },
    {
      "anonymous": false,
      "inputs": [
        {
          "indexed": true,
          "internalType": "address",
          "name": "operator",
          "type": "address"
        },
        {
          "indexed": true,
          "internalType": "address",
          "name": "from",
          "type": "address"
        },
        {
          "indexed": true,
          "internalType": "address",
          "name": "to",
          "type": "address"
        },
        {
          "indexed": false,
          "internalType": "uint256[]",
          "name": "ids",
          "type": "uint256[]"
        },
        {
          "indexed": false,
          "internalType": "uint256[]",
          "name": "values",
          "type": "uint256[]"
        }
      ],
      "name": "TransferBatch",
      "type": "event"
    },
    {
      "anonymous": false,
      "inputs": [
        {
          "indexed": true,
          "internalType": "address",
          "name": "operator",
          "type": "address"
        },
        {
          "indexed": true,
          "internalType": "address",
          "name": "from",
          "type": "address"
        },
        {
          "indexed": true,
          "internalType": "address",
          "name": "to",
          "type": "address"
        },
        {
          "indexed": false,
          "internalType": "uint256",
          "name": "id",
          "type": "uint256"
        },
        {
          "indexed": false,
          "internalType": "uint256",
          "name": "value",
          "type": "uint256"
        }
      ],
      "name": "TransferSingle",
      "type": "event"
    },
    {
      "anonymous": false,
      "inputs": [
        {
          "indexed": false,
          "internalType": "string",
          "name": "value",
          "type": "string"
        },
        {
          "indexed": true,
          "internalType": "uint256",
          "name": "id",
          "type": "uint256"
        }
      ],
      "name": "URI",
      "type": "event"
    },
    {
      "inputs": [],
      "name": "ItekoCoinAddress",
      "outputs": [
        {
          "internalType": "address",
          "name": "",
          "type": "address"
        }
      ],
      "stateMutability": "view",
      "type": "function"
    },
    {
      "inputs": [],
      "name": "amountTekoCoin",
      "outputs": [
        {
          "internalType": "uint256",
          "name": "",
          "type": "uint256"
        }
      ],
      "stateMutability": "view",
      "type": "function"
    },
    {
      "inputs": [
        {
          "internalType": "address",
          "name": "account",
          "type": "address"
        },
        {
          "internalType": "uint256",
          "name": "id",
          "type": "uint256"
        }
      ],
      "name": "balanceOf",
      "outputs": [
        {
          "internalType": "uint256",
          "name": "",
          "type": "uint256"
        }
      ],
      "stateMutability": "view",
      "type": "function"
    },
    {
      "inputs": [
        {
          "internalType": "address[]",
          "name": "accounts",
          "type": "address[]"
        },
        {
          "internalType": "uint256[]",
          "name": "ids",
          "type": "uint256[]"
        }
      ],
      "name": "balanceOfBatch",
      "outputs": [
        {
          "internalType": "uint256[]",
          "name": "",
          "type": "uint256[]"
        }
      ],
      "stateMutability": "view",
      "type": "function"
    },
    {
      "inputs": [
        {
          "internalType": "address",
          "name": "",
          "type": "address"
        }
      ],
      "name": "balances",
      "outputs": [
        {
          "internalType": "uint256",
          "name": "",
          "type": "uint256"
        }
      ],
      "stateMutability": "view",
      "type": "function"
    },
    {
      "inputs": [
        {
          "internalType": "bytes",
          "name": "",
          "type": "bytes"
        }
      ],
      "name": "checkUpkeep",
      "outputs": [
        {
          "internalType": "bool",
          "name": "upkeepNeeded",
          "type": "bool"
        },
        {
          "internalType": "bytes",
          "name": "",
          "type": "bytes"
        }
      ],
      "stateMutability": "view",
      "type": "function"
    },
    {
      "inputs": [],
      "name": "counter",
      "outputs": [
        {
          "internalType": "uint256",
          "name": "",
          "type": "uint256"
        }
      ],
      "stateMutability": "view",
      "type": "function"
    },
    {
      "inputs": [
        {
          "internalType": "uint256",
          "name": "",
          "type": "uint256"
        }
      ],
      "name": "holderAddress",
      "outputs": [
        {
          "internalType": "address",
          "name": "",
          "type": "address"
        }
      ],
      "stateMutability": "view",
      "type": "function"
    },
    {
      "inputs": [],
      "name": "interval",
      "outputs": [
        {
          "internalType": "uint256",
          "name": "",
          "type": "uint256"
        }
      ],
      "stateMutability": "view",
      "type": "function"
    },
    {
      "inputs": [
        {
          "internalType": "address",
          "name": "account",
          "type": "address"
        },
        {
          "internalType": "address",
          "name": "operator",
          "type": "address"
        }
      ],
      "name": "isApprovedForAll",
      "outputs": [
        {
          "internalType": "bool",
          "name": "",
          "type": "bool"
        }
      ],
      "stateMutability": "view",
      "type": "function"
    },
    {
      "inputs": [],
      "name": "lastTimeStamp",
      "outputs": [
        {
          "internalType": "uint256",
          "name": "",
          "type": "uint256"
        }
      ],
      "stateMutability": "view",
      "type": "function"
    },
    {
      "inputs": [],
      "name": "lodgeAddress",
      "outputs": [
        {
          "internalType": "address",
          "name": "",
          "type": "address"
        }
      ],
      "stateMutability": "view",
      "type": "function"
    },
    {
      "inputs": [],
      "name": "mint",
      "outputs": [],
      "stateMutability": "payable",
      "type": "function"
    },
    {
      "inputs": [
        {
          "internalType": "address",
          "name": "",
          "type": "address"
        }
      ],
      "name": "nftId",
      "outputs": [
        {
          "internalType": "uint256",
          "name": "",
          "type": "uint256"
        }
      ],
      "stateMutability": "view",
      "type": "function"
    },
    {
      "inputs": [],
      "name": "nftPrice",
      "outputs": [
        {
          "internalType": "uint256",
          "name": "",
          "type": "uint256"
        }
      ],
      "stateMutability": "view",
      "type": "function"
    },
    {
      "inputs": [],
      "name": "owner",
      "outputs": [
        {
          "internalType": "address",
          "name": "",
          "type": "address"
        }
      ],
      "stateMutability": "view",
      "type": "function"
    },
    {
      "inputs": [
        {
          "internalType": "bytes",
          "name": "",
          "type": "bytes"
        }
      ],
      "name": "performUpkeep",
      "outputs": [],
      "stateMutability": "nonpayable",
      "type": "function"
    },
    {
      "inputs": [],
      "name": "protocolAddress",
      "outputs": [
        {
          "internalType": "address",
          "name": "",
          "type": "address"
        }
      ],
      "stateMutability": "view",
      "type": "function"
    },
    {
      "inputs": [],
      "name": "renounceOwnership",
      "outputs": [],
      "stateMutability": "nonpayable",
      "type": "function"
    },
    {
      "inputs": [
        {
          "internalType": "address",
          "name": "from",
          "type": "address"
        },
        {
          "internalType": "address",
          "name": "to",
          "type": "address"
        },
        {
          "internalType": "uint256[]",
          "name": "ids",
          "type": "uint256[]"
        },
        {
          "internalType": "uint256[]",
          "name": "amounts",
          "type": "uint256[]"
        },
        {
          "internalType": "bytes",
          "name": "data",
          "type": "bytes"
        }
      ],
      "name": "safeBatchTransferFrom",
      "outputs": [],
      "stateMutability": "nonpayable",
      "type": "function"
    },
    {
      "inputs": [
        {
          "internalType": "address",
          "name": "from",
          "type": "address"
        },
        {
          "internalType": "address",
          "name": "to",
          "type": "address"
        },
        {
          "internalType": "uint256",
          "name": "id",
          "type": "uint256"
        },
        {
          "internalType": "uint256",
          "name": "amount",
          "type": "uint256"
        },
        {
          "internalType": "bytes",
          "name": "data",
          "type": "bytes"
        }
      ],
      "name": "safeTransferFrom",
      "outputs": [],
      "stateMutability": "nonpayable",
      "type": "function"
    },
    {
      "inputs": [
        {
          "internalType": "uint256",
          "name": "newAmountEth",
          "type": "uint256"
        }
      ],
      "name": "setAmountTekoCoin",
      "outputs": [],
      "stateMutability": "nonpayable",
      "type": "function"
    },
    {
      "inputs": [
        {
          "internalType": "address",
          "name": "operator",
          "type": "address"
        },
        {
          "internalType": "bool",
          "name": "approved",
          "type": "bool"
        }
      ],
      "name": "setApprovalForAll",
      "outputs": [],
      "stateMutability": "nonpayable",
      "type": "function"
    },
    {
      "inputs": [
        {
          "internalType": "uint256",
          "name": "newNftPrice",
          "type": "uint256"
        }
      ],
      "name": "setNftPrice",
      "outputs": [],
      "stateMutability": "nonpayable",
      "type": "function"
    },
    {
      "inputs": [
        {
          "internalType": "string",
          "name": "newuri",
          "type": "string"
        }
      ],
      "name": "setURI",
      "outputs": [],
      "stateMutability": "nonpayable",
      "type": "function"
    },
    {
      "inputs": [
        {
          "internalType": "bytes4",
          "name": "interfaceId",
          "type": "bytes4"
        }
      ],
      "name": "supportsInterface",
      "outputs": [
        {
          "internalType": "bool",
          "name": "",
          "type": "bool"
        }
      ],
      "stateMutability": "view",
      "type": "function"
    },
    {
      "inputs": [],
      "name": "tokenAddress",
      "outputs": [
        {
          "internalType": "address",
          "name": "",
          "type": "address"
        }
      ],
      "stateMutability": "view",
      "type": "function"
    },
    {
      "inputs": [],
      "name": "totalMinted",
      "outputs": [
        {
          "internalType": "uint256",
          "name": "",
          "type": "uint256"
        }
      ],
      "stateMutability": "view",
      "type": "function"
    },
    {
      "inputs": [
        {
          "internalType": "address",
          "name": "newOwner",
          "type": "address"
        }
      ],
      "name": "transferOwnership",
      "outputs": [],
      "stateMutability": "nonpayable",
      "type": "function"
    },
    {
      "inputs": [],
      "name": "treasuryAddress",
      "outputs": [
        {
          "internalType": "address",
          "name": "",
          "type": "address"
        }
      ],
      "stateMutability": "view",
      "type": "function"
    },
    {
      "inputs": [
        {
          "internalType": "uint256",
          "name": "",
          "type": "uint256"
        }
      ],
      "name": "uri",
      "outputs": [
        {
          "internalType": "string",
          "name": "",
          "type": "string"
        }
      ],
      "stateMutability": "view",
      "type": "function"
    },
    {
      "inputs": [],
      "name": "withdrawFunds",
      "outputs": [],
      "stateMutability": "nonpayable",
      "type": "function"
    }
  ],
  "bytecode": "0x60a06040526801a055690d9db800006008556815af1d78b58c400000600c553480156200002b57600080fd5b50604051620048a6380380620048a683398181016040528101906200005191906200033f565b6040518060200160405280600081525062000072816200017760201b60201c565b5062000093620000876200019360201b60201c565b6200019b60201b60201c565b80608081815250504260098190555083600460006101000a81548173ffffffffffffffffffffffffffffffffffffffff021916908373ffffffffffffffffffffffffffffffffffffffff16021790555082600560006101000a81548173ffffffffffffffffffffffffffffffffffffffff021916908373ffffffffffffffffffffffffffffffffffffffff16021790555081600660006101000a81548173ffffffffffffffffffffffffffffffffffffffff021916908373ffffffffffffffffffffffffffffffffffffffff1602179055506000600a81905550505050506200048d565b80600290805190602001906200018f92919062000261565b5050565b600033905090565b6000600360009054906101000a900473ffffffffffffffffffffffffffffffffffffffff16905081600360006101000a81548173ffffffffffffffffffffffffffffffffffffffff021916908373ffffffffffffffffffffffffffffffffffffffff1602179055508173ffffffffffffffffffffffffffffffffffffffff168173ffffffffffffffffffffffffffffffffffffffff167f8be0079c531659141344cd1fd0a4f28419497f9722a3daafe3b4186f6b6457e060405160405180910390a35050565b8280546200026f90620003ef565b90600052602060002090601f016020900481019282620002935760008555620002df565b82601f10620002ae57805160ff1916838001178555620002df565b82800160010185558215620002df579182015b82811115620002de578251825591602001919060010190620002c1565b5b509050620002ee9190620002f2565b5090565b5b808211156200030d576000816000905550600101620002f3565b5090565b600081519050620003228162000459565b92915050565b600081519050620003398162000473565b92915050565b600080600080608085870312156200035c576200035b62000454565b5b60006200036c8782880162000311565b94505060206200037f8782880162000311565b9350506040620003928782880162000311565b9250506060620003a58782880162000328565b91505092959194509250565b6000620003be82620003c5565b9050919050565b600073ffffffffffffffffffffffffffffffffffffffff82169050919050565b6000819050919050565b600060028204905060018216806200040857607f821691505b602082108114156200041f576200041e62000425565b5b50919050565b7f4e487b7100000000000000000000000000000000000000000000000000000000600052602260045260246000fd5b600080fd5b6200046481620003b1565b81146200047057600080fd5b50565b6200047e81620003e5565b81146200048a57600080fd5b50565b6080516143ef620004b76000396000818161137e015281816114ff015261158801526143ef6000f3fe6080604052600436106101e25760003560e01c80636e04ff0d11610102578063a2309ff811610095578063d6283aac11610064578063d6283aac146106c5578063e985e9c514610702578063f242432a1461073f578063f2fde38b14610768576101e2565b8063a2309ff814610607578063b9e1c9bb14610632578063bfbdaae81461065d578063c5f956af1461069a576101e2565b8063947a36fb116100d1578063947a36fb1461055d5780639b50f653146105885780639d76ea58146105b3578063a22cb465146105de576101e2565b80636e04ff0d146104b4578063715018a6146104f25780637d9a7a4c146105095780638da5cb5b14610532576101e2565b806312ff82ed1161017a5780633f3b3b27116101495780633f3b3b27146103f85780634585e33b146104235780634e1273f41461044c57806361bc221a14610489576101e2565b806312ff82ed1461035057806324600fc31461037b57806327e235e3146103925780632eb2c2d6146103cf576101e2565b80630d39fc81116101b65780630d39fc81146102b55780630e89341c146102e05780630fb1ff3c1461031d5780631249c58b14610346576101e2565b8062fdd58e146101e757806301ffc9a71461022457806302fe5305146102615780630676c1b71461028a575b600080fd5b3480156101f357600080fd5b5061020e60048036038101906102099190612f8d565b610791565b60405161021b91906138e7565b60405180910390f35b34801561023057600080fd5b5061024b60048036038101906102469190613072565b61085a565b604051610258919061367a565b60405180910390f35b34801561026d57600080fd5b5061028860048036038101906102839190613119565b61093c565b005b34801561029657600080fd5b5061029f610950565b6040516102ac919061351b565b60405180910390f35b3480156102c157600080fd5b506102ca610976565b6040516102d791906138e7565b60405180910390f35b3480156102ec57600080fd5b5061030760048036038101906103029190613162565b61097c565b60405161031491906136c5565b60405180910390f35b34801561032957600080fd5b50610344600480360381019061033f9190613162565b610a10565b005b61034e610a35565b005b34801561035c57600080fd5b50610365610cf7565b60405161037291906138e7565b60405180910390f35b34801561038757600080fd5b50610390610cfd565b005b34801561039e57600080fd5b506103b960048036038101906103b49190612d7a565b611278565b6040516103c691906138e7565b60405180910390f35b3480156103db57600080fd5b506103f660048036038101906103f19190612de7565b611290565b005b34801561040457600080fd5b5061040d611331565b60405161041a91906138e7565b60405180910390f35b34801561042f57600080fd5b5061044a600480360381019061044591906130cc565b611337565b005b34801561045857600080fd5b50610473600480360381019061046e9190612fcd565b6113da565b6040516104809190613621565b60405180910390f35b34801561049557600080fd5b5061049e6114f3565b6040516104ab91906138e7565b60405180910390f35b3480156104c057600080fd5b506104db60048036038101906104d691906130cc565b6114f9565b6040516104e9929190613695565b60405180910390f35b3480156104fe57600080fd5b50610507611536565b005b34801561051557600080fd5b50610530600480360381019061052b9190613162565b61154a565b005b34801561053e57600080fd5b5061054761155c565b604051610554919061351b565b60405180910390f35b34801561056957600080fd5b50610572611586565b60405161057f91906138e7565b60405180910390f35b34801561059457600080fd5b5061059d6115aa565b6040516105aa919061351b565b60405180910390f35b3480156105bf57600080fd5b506105c86115d0565b6040516105d5919061351b565b60405180910390f35b3480156105ea57600080fd5b5061060560048036038101906106009190612f4d565b6115f6565b005b34801561061357600080fd5b5061061c61160c565b60405161062991906138e7565b60405180910390f35b34801561063e57600080fd5b50610647611612565b604051610654919061351b565b60405180910390f35b34801561066957600080fd5b50610684600480360381019061067f9190612d7a565b61162a565b60405161069191906138e7565b60405180910390f35b3480156106a657600080fd5b506106af611642565b6040516106bc919061351b565b60405180910390f35b3480156106d157600080fd5b506106ec60048036038101906106e79190613162565b611668565b6040516106f9919061351b565b60405180910390f35b34801561070e57600080fd5b5061072960048036038101906107249190612da7565b61169b565b604051610736919061367a565b60405180910390f35b34801561074b57600080fd5b5061076660048036038101906107619190612eb6565b61172f565b005b34801561077457600080fd5b5061078f600480360381019061078a9190612d7a565b6117d0565b005b60008073ffffffffffffffffffffffffffffffffffffffff168373ffffffffffffffffffffffffffffffffffffffff161415610802576040517f08c379a00000000000000000000000000000000000000000000000000000000081526004016107f990613787565b60405180910390fd5b60008083815260200190815260200160002060008473ffffffffffffffffffffffffffffffffffffffff1673ffffffffffffffffffffffffffffffffffffffff16815260200190815260200160002054905092915050565b60007fd9b67a26000000000000000000000000000000000000000000000000000000007bffffffffffffffffffffffffffffffffffffffffffffffffffffffff1916827bffffffffffffffffffffffffffffffffffffffffffffffffffffffff1916148061092557507f0e89341c000000000000000000000000000000000000000000000000000000007bffffffffffffffffffffffffffffffffffffffffffffffffffffffff1916827bffffffffffffffffffffffffffffffffffffffffffffffffffffffff1916145b80610935575061093482611854565b5b9050919050565b6109446118be565b61094d8161193c565b50565b600460009054906101000a900473ffffffffffffffffffffffffffffffffffffffff1681565b600c5481565b60606002805461098b90613c51565b80601f01602080910402602001604051908101604052809291908181526020018280546109b790613c51565b8015610a045780601f106109d957610100808354040283529160200191610a04565b820191906000526020600020905b8154815290600101906020018083116109e757829003601f168201915b50505050509050919050565b610a186118be565b670de0b6b3a764000081610a2c9190613b0d565b60088190555050565b600c54341015610a7a576040517f08c379a0000000000000000000000000000000000000000000000000000000008152600401610a7190613847565b60405180910390fd5b6064600a34610a899190613b0d565b610a939190613adc565b600f6000600460009054906101000a900473ffffffffffffffffffffffffffffffffffffffff1673ffffffffffffffffffffffffffffffffffffffff1673ffffffffffffffffffffffffffffffffffffffff1681526020019081526020016000206000828254610b039190613a86565b925050819055506064602334610b199190613b0d565b610b239190613adc565b600f6000600560009054906101000a900473ffffffffffffffffffffffffffffffffffffffff1673ffffffffffffffffffffffffffffffffffffffff1673ffffffffffffffffffffffffffffffffffffffff1681526020019081526020016000206000828254610b939190613a86565b925050819055506064603234610ba99190613b0d565b610bb39190613adc565b600f6000600660009054906101000a900473ffffffffffffffffffffffffffffffffffffffff1673ffffffffffffffffffffffffffffffffffffffff1673ffffffffffffffffffffffffffffffffffffffff1681526020019081526020016000206000828254610c239190613a86565b925050819055506001600b54610c399190613a86565b600b81905550610c5b3360018060405180602001604052806000815250611956565b33600d6000600b54815260200190815260200160002060006101000a81548173ffffffffffffffffffffffffffffffffffffffff021916908373ffffffffffffffffffffffffffffffffffffffff160217905550600b54600e60003373ffffffffffffffffffffffffffffffffffffffff1673ffffffffffffffffffffffffffffffffffffffff16815260200190815260200160002081905550565b60085481565b600460009054906101000a900473ffffffffffffffffffffffffffffffffffffffff1673ffffffffffffffffffffffffffffffffffffffff163373ffffffffffffffffffffffffffffffffffffffff161480610da65750600560009054906101000a900473ffffffffffffffffffffffffffffffffffffffff1673ffffffffffffffffffffffffffffffffffffffff163373ffffffffffffffffffffffffffffffffffffffff16145b80610dfe5750600660009054906101000a900473ffffffffffffffffffffffffffffffffffffffff1673ffffffffffffffffffffffffffffffffffffffff163373ffffffffffffffffffffffffffffffffffffffff16145b610e3d576040517f08c379a0000000000000000000000000000000000000000000000000000000008152600401610e3490613827565b60405180910390fd5b600460009054906101000a900473ffffffffffffffffffffffffffffffffffffffff1673ffffffffffffffffffffffffffffffffffffffff163373ffffffffffffffffffffffffffffffffffffffff161415610fa65760003373ffffffffffffffffffffffffffffffffffffffff16600f6000600460009054906101000a900473ffffffffffffffffffffffffffffffffffffffff1673ffffffffffffffffffffffffffffffffffffffff1673ffffffffffffffffffffffffffffffffffffffff16815260200190815260200160002054604051610f1a90613506565b60006040518083038185875af1925050503d8060008114610f57576040519150601f19603f3d011682016040523d82523d6000602084013e610f5c565b606091505b5050905080610fa0576040517f08c379a0000000000000000000000000000000000000000000000000000000008152600401610f9790613807565b60405180910390fd5b50611276565b600560009054906101000a900473ffffffffffffffffffffffffffffffffffffffff1673ffffffffffffffffffffffffffffffffffffffff163373ffffffffffffffffffffffffffffffffffffffff16141561110f5760003373ffffffffffffffffffffffffffffffffffffffff16600f6000600560009054906101000a900473ffffffffffffffffffffffffffffffffffffffff1673ffffffffffffffffffffffffffffffffffffffff1673ffffffffffffffffffffffffffffffffffffffff1681526020019081526020016000205460405161108390613506565b60006040518083038185875af1925050503d80600081146110c0576040519150601f19603f3d011682016040523d82523d6000602084013e6110c5565b606091505b5050905080611109576040517f08c379a000000000000000000000000000000000000000000000000000000000815260040161110090613807565b60405180910390fd5b50611275565b600660009054906101000a900473ffffffffffffffffffffffffffffffffffffffff1673ffffffffffffffffffffffffffffffffffffffff163373ffffffffffffffffffffffffffffffffffffffff1614156112745760003373ffffffffffffffffffffffffffffffffffffffff16600f6000600660009054906101000a900473ffffffffffffffffffffffffffffffffffffffff1673ffffffffffffffffffffffffffffffffffffffff1673ffffffffffffffffffffffffffffffffffffffff168152602001908152602001600020546040516111ec90613506565b60006040518083038185875af1925050503d8060008114611229576040519150601f19603f3d011682016040523d82523d6000602084013e61122e565b606091505b5050905080611272576040517f08c379a000000000000000000000000000000000000000000000000000000000815260040161126990613807565b60405180910390fd5b505b5b5b565b600f6020528060005260406000206000915090505481565b611298611b07565b73ffffffffffffffffffffffffffffffffffffffff168573ffffffffffffffffffffffffffffffffffffffff1614806112de57506112dd856112d8611b07565b61169b565b5b61131d576040517f08c379a000000000000000000000000000000000000000000000000000000000815260040161131490613707565b60405180910390fd5b61132a8585858585611b0f565b5050505050565b60095481565b6000600b541161137c576040517f08c379a000000000000000000000000000000000000000000000000000000000815260040161137390613747565b60405180910390fd5b7f0000000000000000000000000000000000000000000000000000000000000000600954426113ab9190613b67565b11156113d6576113b9611e31565b426009819055506001600a546113cf9190613a86565b600a819055505b5050565b60608151835114611420576040517f08c379a000000000000000000000000000000000000000000000000000000000815260040161141790613887565b60405180910390fd5b6000835167ffffffffffffffff81111561143d5761143c613db9565b5b60405190808252806020026020018201604052801561146b5781602001602082028036833780820191505090505b50905060005b84518110156114e8576114b88582815181106114905761148f613d8a565b5b60200260200101518583815181106114ab576114aa613d8a565b5b6020026020010151610791565b8282815181106114cb576114ca613d8a565b5b602002602001018181525050806114e190613cb4565b9050611471565b508091505092915050565b600a5481565b600060607f00000000000000000000000000000000000000000000000000000000000000006009544261152c9190613b67565b1191509250929050565b61153e6118be565b6115486000611f2e565b565b6115526118be565b80600c8190555050565b6000600360009054906101000a900473ffffffffffffffffffffffffffffffffffffffff16905090565b7f000000000000000000000000000000000000000000000000000000000000000081565b600660009054906101000a900473ffffffffffffffffffffffffffffffffffffffff1681565b600760009054906101000a900473ffffffffffffffffffffffffffffffffffffffff1681565b611608611601611b07565b8383611ff4565b5050565b600b5481565b731bcc782f32faa3d150682376e40357ff3aabeeed81565b600e6020528060005260406000206000915090505481565b600560009054906101000a900473ffffffffffffffffffffffffffffffffffffffff1681565b600d6020528060005260406000206000915054906101000a900473ffffffffffffffffffffffffffffffffffffffff1681565b6000600160008473ffffffffffffffffffffffffffffffffffffffff1673ffffffffffffffffffffffffffffffffffffffff16815260200190815260200160002060008373ffffffffffffffffffffffffffffffffffffffff1673ffffffffffffffffffffffffffffffffffffffff16815260200190815260200160002060009054906101000a900460ff16905092915050565b611737611b07565b73ffffffffffffffffffffffffffffffffffffffff168573ffffffffffffffffffffffffffffffffffffffff16148061177d575061177c85611777611b07565b61169b565b5b6117bc576040517f08c379a00000000000000000000000000000000000000000000000000000000081526004016117b390613707565b60405180910390fd5b6117c98585858585612161565b5050505050565b6117d86118be565b600073ffffffffffffffffffffffffffffffffffffffff168173ffffffffffffffffffffffffffffffffffffffff161415611848576040517f08c379a000000000000000000000000000000000000000000000000000000000815260040161183f90613767565b60405180910390fd5b61185181611f2e565b50565b60007f01ffc9a7000000000000000000000000000000000000000000000000000000007bffffffffffffffffffffffffffffffffffffffffffffffffffffffff1916827bffffffffffffffffffffffffffffffffffffffffffffffffffffffff1916149050919050565b6118c6611b07565b73ffffffffffffffffffffffffffffffffffffffff166118e461155c565b73ffffffffffffffffffffffffffffffffffffffff161461193a576040517f08c379a0000000000000000000000000000000000000000000000000000000008152600401611931906137e7565b60405180910390fd5b565b80600290805190602001906119529291906129e7565b5050565b600073ffffffffffffffffffffffffffffffffffffffff168473ffffffffffffffffffffffffffffffffffffffff1614156119c6576040517f08c379a00000000000000000000000000000000000000000000000000000000081526004016119bd906138c7565b60405180910390fd5b60006119d0611b07565b905060006119dd856123fd565b905060006119ea856123fd565b90506119fb83600089858589612477565b8460008088815260200190815260200160002060008973ffffffffffffffffffffffffffffffffffffffff1673ffffffffffffffffffffffffffffffffffffffff1681526020019081526020016000206000828254611a5a9190613a86565b925050819055508673ffffffffffffffffffffffffffffffffffffffff16600073ffffffffffffffffffffffffffffffffffffffff168473ffffffffffffffffffffffffffffffffffffffff167fc3d58168c5ae7397731d063d5bbf3d657854427343f4c083240f7aacaa2d0f628989604051611ad8929190613902565b60405180910390a4611aef836000898585896125e6565b611afe836000898989896125ee565b50505050505050565b600033905090565b8151835114611b53576040517f08c379a0000000000000000000000000000000000000000000000000000000008152600401611b4a906138a7565b60405180910390fd5b600073ffffffffffffffffffffffffffffffffffffffff168473ffffffffffffffffffffffffffffffffffffffff161415611bc3576040517f08c379a0000000000000000000000000000000000000000000000000000000008152600401611bba906137a7565b60405180910390fd5b6000611bcd611b07565b9050611bdd818787878787612477565b60005b8451811015611d8e576000858281518110611bfe57611bfd613d8a565b5b602002602001015190506000858381518110611c1d57611c1c613d8a565b5b60200260200101519050600080600084815260200190815260200160002060008b73ffffffffffffffffffffffffffffffffffffffff1673ffffffffffffffffffffffffffffffffffffffff16815260200190815260200160002054905081811015611cbe576040517f08c379a0000000000000000000000000000000000000000000000000000000008152600401611cb5906137c7565b60405180910390fd5b81810360008085815260200190815260200160002060008c73ffffffffffffffffffffffffffffffffffffffff1673ffffffffffffffffffffffffffffffffffffffff168152602001908152602001600020819055508160008085815260200190815260200160002060008b73ffffffffffffffffffffffffffffffffffffffff1673ffffffffffffffffffffffffffffffffffffffff1681526020019081526020016000206000828254611d739190613a86565b9250508190555050505080611d8790613cb4565b9050611be0565b508473ffffffffffffffffffffffffffffffffffffffff168673ffffffffffffffffffffffffffffffffffffffff168273ffffffffffffffffffffffffffffffffffffffff167f4a39dc06d4c0dbc64b70af90fd698a233a518aa5d07e595d983b8c0526c8f7fb8787604051611e05929190613643565b60405180910390a4611e1b8187878787876125e6565b611e298187878787876127d5565b505050505050565b6000600190505b600b548111611f2b57731bcc782f32faa3d150682376e40357ff3aabeeed73ffffffffffffffffffffffffffffffffffffffff1663a9059cbb600d600084815260200190815260200160002060009054906101000a900473ffffffffffffffffffffffffffffffffffffffff166008546040518363ffffffff1660e01b8152600401611ec59291906135f8565b602060405180830381600087803b158015611edf57600080fd5b505af1158015611ef3573d6000803e3d6000fd5b505050506040513d601f19601f82011682018060405250810190611f179190613045565b508080611f2390613cb4565b915050611e38565b50565b6000600360009054906101000a900473ffffffffffffffffffffffffffffffffffffffff16905081600360006101000a81548173ffffffffffffffffffffffffffffffffffffffff021916908373ffffffffffffffffffffffffffffffffffffffff1602179055508173ffffffffffffffffffffffffffffffffffffffff168173ffffffffffffffffffffffffffffffffffffffff167f8be0079c531659141344cd1fd0a4f28419497f9722a3daafe3b4186f6b6457e060405160405180910390a35050565b8173ffffffffffffffffffffffffffffffffffffffff168373ffffffffffffffffffffffffffffffffffffffff161415612063576040517f08c379a000000000000000000000000000000000000000000000000000000000815260040161205a90613867565b60405180910390fd5b80600160008573ffffffffffffffffffffffffffffffffffffffff1673ffffffffffffffffffffffffffffffffffffffff16815260200190815260200160002060008473ffffffffffffffffffffffffffffffffffffffff1673ffffffffffffffffffffffffffffffffffffffff16815260200190815260200160002060006101000a81548160ff0219169083151502179055508173ffffffffffffffffffffffffffffffffffffffff168373ffffffffffffffffffffffffffffffffffffffff167f17307eab39ab6107e8899845ad3d59bd9653f200f220920489ca2b5937696c3183604051612154919061367a565b60405180910390a3505050565b600073ffffffffffffffffffffffffffffffffffffffff168473ffffffffffffffffffffffffffffffffffffffff1614156121d1576040517f08c379a00000000000000000000000000000000000000000000000000000000081526004016121c8906137a7565b60405180910390fd5b60006121db611b07565b905060006121e8856123fd565b905060006121f5856123fd565b9050612205838989858589612477565b600080600088815260200190815260200160002060008a73ffffffffffffffffffffffffffffffffffffffff1673ffffffffffffffffffffffffffffffffffffffff1681526020019081526020016000205490508581101561229c576040517f08c379a0000000000000000000000000000000000000000000000000000000008152600401612293906137c7565b60405180910390fd5b85810360008089815260200190815260200160002060008b73ffffffffffffffffffffffffffffffffffffffff1673ffffffffffffffffffffffffffffffffffffffff168152602001908152602001600020819055508560008089815260200190815260200160002060008a73ffffffffffffffffffffffffffffffffffffffff1673ffffffffffffffffffffffffffffffffffffffff16815260200190815260200160002060008282546123519190613a86565b925050819055508773ffffffffffffffffffffffffffffffffffffffff168973ffffffffffffffffffffffffffffffffffffffff168573ffffffffffffffffffffffffffffffffffffffff167fc3d58168c5ae7397731d063d5bbf3d657854427343f4c083240f7aacaa2d0f628a8a6040516123ce929190613902565b60405180910390a46123e4848a8a86868a6125e6565b6123f2848a8a8a8a8a6125ee565b505050505050505050565b60606000600167ffffffffffffffff81111561241c5761241b613db9565b5b60405190808252806020026020018201604052801561244a5781602001602082028036833780820191505090505b509050828160008151811061246257612461613d8a565b5b60200260200101818152505080915050919050565b83600d6000600e60008973ffffffffffffffffffffffffffffffffffffffff1673ffffffffffffffffffffffffffffffffffffffff16815260200190815260200160002054815260200190815260200160002060006101000a81548173ffffffffffffffffffffffffffffffffffffffff021916908373ffffffffffffffffffffffffffffffffffffffff160217905550600e60008673ffffffffffffffffffffffffffffffffffffffff1673ffffffffffffffffffffffffffffffffffffffff16815260200190815260200160002054600e60008673ffffffffffffffffffffffffffffffffffffffff1673ffffffffffffffffffffffffffffffffffffffff168152602001908152602001600020819055506000600e60008773ffffffffffffffffffffffffffffffffffffffff1673ffffffffffffffffffffffffffffffffffffffff168152602001908152602001600020819055506125de8686868686866129bc565b505050505050565b505050505050565b61260d8473ffffffffffffffffffffffffffffffffffffffff166129c4565b156127cd578373ffffffffffffffffffffffffffffffffffffffff1663f23a6e6187878686866040518663ffffffff1660e01b815260040161265395949392919061359e565b602060405180830381600087803b15801561266d57600080fd5b505af192505050801561269e57506040513d601f19601f8201168201806040525081019061269b919061309f565b60015b612744576126aa613de8565b806308c379a0141561270757506126bf6142c7565b806126ca5750612709565b806040517f08c379a00000000000000000000000000000000000000000000000000000000081526004016126fe91906136c5565b60405180910390fd5b505b6040517f08c379a000000000000000000000000000000000000000000000000000000000815260040161273b906136e7565b60405180910390fd5b63f23a6e6160e01b7bffffffffffffffffffffffffffffffffffffffffffffffffffffffff1916817bffffffffffffffffffffffffffffffffffffffffffffffffffffffff1916146127cb576040517f08c379a00000000000000000000000000000000000000000000000000000000081526004016127c290613727565b60405180910390fd5b505b505050505050565b6127f48473ffffffffffffffffffffffffffffffffffffffff166129c4565b156129b4578373ffffffffffffffffffffffffffffffffffffffff1663bc197c8187878686866040518663ffffffff1660e01b815260040161283a959493929190613536565b602060405180830381600087803b15801561285457600080fd5b505af192505050801561288557506040513d601f19601f82011682018060405250810190612882919061309f565b60015b61292b57612891613de8565b806308c379a014156128ee57506128a66142c7565b806128b157506128f0565b806040517f08c379a00000000000000000000000000000000000000000000000000000000081526004016128e591906136c5565b60405180910390fd5b505b6040517f08c379a0000000000000000000000000000000000000000000000000000000008152600401612922906136e7565b60405180910390fd5b63bc197c8160e01b7bffffffffffffffffffffffffffffffffffffffffffffffffffffffff1916817bffffffffffffffffffffffffffffffffffffffffffffffffffffffff1916146129b2576040517f08c379a00000000000000000000000000000000000000000000000000000000081526004016129a990613727565b60405180910390fd5b505b505050505050565b505050505050565b6000808273ffffffffffffffffffffffffffffffffffffffff163b119050919050565b8280546129f390613c51565b90600052602060002090601f016020900481019282612a155760008555612a5c565b82601f10612a2e57805160ff1916838001178555612a5c565b82800160010185558215612a5c579182015b82811115612a5b578251825591602001919060010190612a40565b5b509050612a699190612a6d565b5090565b5b80821115612a86576000816000905550600101612a6e565b5090565b6000612a9d612a9884613950565b61392b565b90508083825260208201905082856020860282011115612ac057612abf613e14565b5b60005b85811015612af05781612ad68882612bee565b845260208401935060208301925050600181019050612ac3565b5050509392505050565b6000612b0d612b088461397c565b61392b565b90508083825260208201905082856020860282011115612b3057612b2f613e14565b5b60005b85811015612b605781612b468882612d65565b845260208401935060208301925050600181019050612b33565b5050509392505050565b6000612b7d612b78846139a8565b61392b565b905082815260208101848484011115612b9957612b98613e19565b5b612ba4848285613c0f565b509392505050565b6000612bbf612bba846139d9565b61392b565b905082815260208101848484011115612bdb57612bda613e19565b5b612be6848285613c0f565b509392505050565b600081359050612bfd8161435d565b92915050565b600082601f830112612c1857612c17613e0f565b5b8135612c28848260208601612a8a565b91505092915050565b600082601f830112612c4657612c45613e0f565b5b8135612c56848260208601612afa565b91505092915050565b600081359050612c6e81614374565b92915050565b600081519050612c8381614374565b92915050565b600081359050612c988161438b565b92915050565b600081519050612cad8161438b565b92915050565b60008083601f840112612cc957612cc8613e0f565b5b8235905067ffffffffffffffff811115612ce657612ce5613e0a565b5b602083019150836001820283011115612d0257612d01613e14565b5b9250929050565b600082601f830112612d1e57612d1d613e0f565b5b8135612d2e848260208601612b6a565b91505092915050565b600082601f830112612d4c57612d4b613e0f565b5b8135612d5c848260208601612bac565b91505092915050565b600081359050612d74816143a2565b92915050565b600060208284031215612d9057612d8f613e23565b5b6000612d9e84828501612bee565b91505092915050565b60008060408385031215612dbe57612dbd613e23565b5b6000612dcc85828601612bee565b9250506020612ddd85828601612bee565b9150509250929050565b600080600080600060a08688031215612e0357612e02613e23565b5b6000612e1188828901612bee565b9550506020612e2288828901612bee565b945050604086013567ffffffffffffffff811115612e4357612e42613e1e565b5b612e4f88828901612c31565b935050606086013567ffffffffffffffff811115612e7057612e6f613e1e565b5b612e7c88828901612c31565b925050608086013567ffffffffffffffff811115612e9d57612e9c613e1e565b5b612ea988828901612d09565b9150509295509295909350565b600080600080600060a08688031215612ed257612ed1613e23565b5b6000612ee088828901612bee565b9550506020612ef188828901612bee565b9450506040612f0288828901612d65565b9350506060612f1388828901612d65565b925050608086013567ffffffffffffffff811115612f3457612f33613e1e565b5b612f4088828901612d09565b9150509295509295909350565b60008060408385031215612f6457612f63613e23565b5b6000612f7285828601612bee565b9250506020612f8385828601612c5f565b9150509250929050565b60008060408385031215612fa457612fa3613e23565b5b6000612fb285828601612bee565b9250506020612fc385828601612d65565b9150509250929050565b60008060408385031215612fe457612fe3613e23565b5b600083013567ffffffffffffffff81111561300257613001613e1e565b5b61300e85828601612c03565b925050602083013567ffffffffffffffff81111561302f5761302e613e1e565b5b61303b85828601612c31565b9150509250929050565b60006020828403121561305b5761305a613e23565b5b600061306984828501612c74565b91505092915050565b60006020828403121561308857613087613e23565b5b600061309684828501612c89565b91505092915050565b6000602082840312156130b5576130b4613e23565b5b60006130c384828501612c9e565b91505092915050565b600080602083850312156130e3576130e2613e23565b5b600083013567ffffffffffffffff81111561310157613100613e1e565b5b61310d85828601612cb3565b92509250509250929050565b60006020828403121561312f5761312e613e23565b5b600082013567ffffffffffffffff81111561314d5761314c613e1e565b5b61315984828501612d37565b91505092915050565b60006020828403121561317857613177613e23565b5b600061318684828501612d65565b91505092915050565b600061319b83836134e8565b60208301905092915050565b6131b081613b9b565b82525050565b60006131c182613a1a565b6131cb8185613a48565b93506131d683613a0a565b8060005b838110156132075781516131ee888261318f565b97506131f983613a3b565b9250506001810190506131da565b5085935050505092915050565b61321d81613bad565b82525050565b600061322e82613a25565b6132388185613a59565b9350613248818560208601613c1e565b61325181613e28565b840191505092915050565b600061326782613a30565b6132718185613a75565b9350613281818560208601613c1e565b61328a81613e28565b840191505092915050565b60006132a2603483613a75565b91506132ad82613e46565b604082019050919050565b60006132c5602f83613a75565b91506132d082613e95565b604082019050919050565b60006132e8602883613a75565b91506132f382613ee4565b604082019050919050565b600061330b602383613a75565b915061331682613f33565b604082019050919050565b600061332e602683613a75565b915061333982613f82565b604082019050919050565b6000613351602a83613a75565b915061335c82613fd1565b604082019050919050565b6000613374602583613a75565b915061337f82614020565b604082019050919050565b6000613397602a83613a75565b91506133a28261406f565b604082019050919050565b60006133ba602083613a75565b91506133c5826140be565b602082019050919050565b60006133dd600b83613a75565b91506133e8826140e7565b602082019050919050565b6000613400602583613a75565b915061340b82614110565b604082019050919050565b6000613423601583613a75565b915061342e8261415f565b602082019050919050565b6000613446600083613a6a565b915061345182614188565b600082019050919050565b6000613469602983613a75565b91506134748261418b565b604082019050919050565b600061348c602983613a75565b9150613497826141da565b604082019050919050565b60006134af602883613a75565b91506134ba82614229565b604082019050919050565b60006134d2602183613a75565b91506134dd82614278565b604082019050919050565b6134f181613c05565b82525050565b61350081613c05565b82525050565b600061351182613439565b9150819050919050565b600060208201905061353060008301846131a7565b92915050565b600060a08201905061354b60008301886131a7565b61355860208301876131a7565b818103604083015261356a81866131b6565b9050818103606083015261357e81856131b6565b905081810360808301526135928184613223565b90509695505050505050565b600060a0820190506135b360008301886131a7565b6135c060208301876131a7565b6135cd60408301866134f7565b6135da60608301856134f7565b81810360808301526135ec8184613223565b90509695505050505050565b600060408201905061360d60008301856131a7565b61361a60208301846134f7565b9392505050565b6000602082019050818103600083015261363b81846131b6565b905092915050565b6000604082019050818103600083015261365d81856131b6565b9050818103602083015261367181846131b6565b90509392505050565b600060208201905061368f6000830184613214565b92915050565b60006040820190506136aa6000830185613214565b81810360208301526136bc8184613223565b90509392505050565b600060208201905081810360008301526136df818461325c565b905092915050565b6000602082019050818103600083015261370081613295565b9050919050565b60006020820190508181036000830152613720816132b8565b9050919050565b60006020820190508181036000830152613740816132db565b9050919050565b60006020820190508181036000830152613760816132fe565b9050919050565b6000602082019050818103600083015261378081613321565b9050919050565b600060208201905081810360008301526137a081613344565b9050919050565b600060208201905081810360008301526137c081613367565b9050919050565b600060208201905081810360008301526137e08161338a565b9050919050565b60006020820190508181036000830152613800816133ad565b9050919050565b60006020820190508181036000830152613820816133d0565b9050919050565b60006020820190508181036000830152613840816133f3565b9050919050565b6000602082019050818103600083015261386081613416565b9050919050565b600060208201905081810360008301526138808161345c565b9050919050565b600060208201905081810360008301526138a08161347f565b9050919050565b600060208201905081810360008301526138c0816134a2565b9050919050565b600060208201905081810360008301526138e0816134c5565b9050919050565b60006020820190506138fc60008301846134f7565b92915050565b600060408201905061391760008301856134f7565b61392460208301846134f7565b9392505050565b6000613935613946565b90506139418282613c83565b919050565b6000604051905090565b600067ffffffffffffffff82111561396b5761396a613db9565b5b602082029050602081019050919050565b600067ffffffffffffffff82111561399757613996613db9565b5b602082029050602081019050919050565b600067ffffffffffffffff8211156139c3576139c2613db9565b5b6139cc82613e28565b9050602081019050919050565b600067ffffffffffffffff8211156139f4576139f3613db9565b5b6139fd82613e28565b9050602081019050919050565b6000819050602082019050919050565b600081519050919050565b600081519050919050565b600081519050919050565b6000602082019050919050565b600082825260208201905092915050565b600082825260208201905092915050565b600081905092915050565b600082825260208201905092915050565b6000613a9182613c05565b9150613a9c83613c05565b9250827fffffffffffffffffffffffffffffffffffffffffffffffffffffffffffffffff03821115613ad157613ad0613cfd565b5b828201905092915050565b6000613ae782613c05565b9150613af283613c05565b925082613b0257613b01613d2c565b5b828204905092915050565b6000613b1882613c05565b9150613b2383613c05565b9250817fffffffffffffffffffffffffffffffffffffffffffffffffffffffffffffffff0483118215151615613b5c57613b5b613cfd565b5b828202905092915050565b6000613b7282613c05565b9150613b7d83613c05565b925082821015613b9057613b8f613cfd565b5b828203905092915050565b6000613ba682613be5565b9050919050565b60008115159050919050565b60007fffffffff0000000000000000000000000000000000000000000000000000000082169050919050565b600073ffffffffffffffffffffffffffffffffffffffff82169050919050565b6000819050919050565b82818337600083830152505050565b60005b83811015613c3c578082015181840152602081019050613c21565b83811115613c4b576000848401525b50505050565b60006002820490506001821680613c6957607f821691505b60208210811415613c7d57613c7c613d5b565b5b50919050565b613c8c82613e28565b810181811067ffffffffffffffff82111715613cab57613caa613db9565b5b80604052505050565b6000613cbf82613c05565b91507fffffffffffffffffffffffffffffffffffffffffffffffffffffffffffffffff821415613cf257613cf1613cfd565b5b600182019050919050565b7f4e487b7100000000000000000000000000000000000000000000000000000000600052601160045260246000fd5b7f4e487b7100000000000000000000000000000000000000000000000000000000600052601260045260246000fd5b7f4e487b7100000000000000000000000000000000000000000000000000000000600052602260045260246000fd5b7f4e487b7100000000000000000000000000000000000000000000000000000000600052603260045260246000fd5b7f4e487b7100000000000000000000000000000000000000000000000000000000600052604160045260246000fd5b600060033d1115613e075760046000803e613e04600051613e39565b90505b90565b600080fd5b600080fd5b600080fd5b600080fd5b600080fd5b600080fd5b6000601f19601f8301169050919050565b60008160e01c9050919050565b7f455243313135353a207472616e7366657220746f206e6f6e204552433131353560008201527f526563656976657220696d706c656d656e746572000000000000000000000000602082015250565b7f455243313135353a2063616c6c6572206973206e6f7420746f6b656e206f776e60008201527f6572206e6f7220617070726f7665640000000000000000000000000000000000602082015250565b7f455243313135353a204552433131353552656365697665722072656a6563746560008201527f6420746f6b656e73000000000000000000000000000000000000000000000000602082015250565b7f74686520636f6e747261637420646f65736e742068617665206e6674206d696e60008201527f7465640000000000000000000000000000000000000000000000000000000000602082015250565b7f4f776e61626c653a206e6577206f776e657220697320746865207a65726f206160008201527f6464726573730000000000000000000000000000000000000000000000000000602082015250565b7f455243313135353a2061646472657373207a65726f206973206e6f742061207660008201527f616c6964206f776e657200000000000000000000000000000000000000000000602082015250565b7f455243313135353a207472616e7366657220746f20746865207a65726f20616460008201527f6472657373000000000000000000000000000000000000000000000000000000602082015250565b7f455243313135353a20696e73756666696369656e742062616c616e636520666f60008201527f72207472616e7366657200000000000000000000000000000000000000000000602082015250565b7f4f776e61626c653a2063616c6c6572206973206e6f7420746865206f776e6572600082015250565b7f63616c6c206661696c6564000000000000000000000000000000000000000000600082015250565b7f41646472657373206e6f7420616c6c6f77656420746f2077697468647261772060008201527f66756e6473000000000000000000000000000000000000000000000000000000602082015250565b7f4e6f7420656e6f756768204d415449432073656e740000000000000000000000600082015250565b50565b7f455243313135353a2073657474696e6720617070726f76616c2073746174757360008201527f20666f722073656c660000000000000000000000000000000000000000000000602082015250565b7f455243313135353a206163636f756e747320616e6420696473206c656e67746860008201527f206d69736d617463680000000000000000000000000000000000000000000000602082015250565b7f455243313135353a2069647320616e6420616d6f756e7473206c656e6774682060008201527f6d69736d61746368000000000000000000000000000000000000000000000000602082015250565b7f455243313135353a206d696e7420746f20746865207a65726f2061646472657360008201527f7300000000000000000000000000000000000000000000000000000000000000602082015250565b600060443d10156142d75761435a565b6142df613946565b60043d036004823e80513d602482011167ffffffffffffffff8211171561430757505061435a565b808201805167ffffffffffffffff811115614325575050505061435a565b80602083010160043d03850181111561434257505050505061435a565b61435182602001850186613c83565b82955050505050505b90565b61436681613b9b565b811461437157600080fd5b50565b61437d81613bad565b811461438857600080fd5b50565b61439481613bb9565b811461439f57600080fd5b50565b6143ab81613c05565b81146143b657600080fd5b5056fea26469706673582212201c754d343b3bc106c75183ba597e3e87df40ab6aafdacf0519809f74d69e4da764736f6c63430008070033",
  "linkReferences": {},
  "deployedLinkReferences": {}
}